:060000000A128A110E280D
:10000800FE00030EF1000408F2000A08F3000A12C9
:100018008A1111280A128A11D62A831603130C1C76
:100028001E2883120C1C1E28B1300C1020148F00BF
:10003800DF308E0083168C1C472883128C1C4728BF
:10004800AD0A2D08063A031D2B28AD01AD0A033071
:10005800061186122D02031C3E2846282F08502020
:100068000A128A1186164628300850200A128A1168
:10007800061546282D08013A03193228033A0319B0
:10008800382846288C1073088A0072088400710E7C
:100098008300FE0E7E0E0900F00084289F30850044
:1000A80008000C30850008003B30850008003E3011
:1000B80085000800AC3085000800B63085000800CF
:1000C800B730850008001C3085000800BF30850067
:1000D8000800BC3085000800BD3085000800A73046
:1000E80085000800B330850008002F30850008001F
:1000F800B13085000800203085000800850108001F
:100108007008003A03195228013A03195528033A8E
:1001180003195828013A03195B28073A03195E287E
:10012800013A03196128033A03196428013A0319AB
:1001380067280F3A03196A28013A03196D28033A08
:1001480003197028013A03197328073A0319762806
:10015800013A03197928033A03197628013A031951
:100168007C281F3A03197F28043A03198228BC28DF
:1001780008000A128A115B210A128A1105308312BB
:1001880003178D003F3083168C050C1483120C085E
:100198000313AC003D302C02031CD4283C30AC00C7
:1001A8000A302016A5008715201EE328201CD82811
:1001B80020300A128A11D0210A128A11D8288312F3
:1001C8000313201CED2820300A128A11D0210A12AC
:1001D8008A11A01CF6282030A0100A128A119E222B
:1001E8000A128A11A01D1629A011B41CFC28AC0300
:1001F8002B300A128A1144220A128A11AC08031DF4
:1002080016290530B4100612871503178D003F30E4
:1002180083168C050C1483120C080313AC001430DD
:10022800A017A800A01B2629291F871D1F29B41461
:100238000616A4018711291E871D2629B414061243
:10024800A4018711A91FA01A3B293D30AC0A2C0232
:10025800031C30290A30AC002B300A128A114422C0
:100268000A128A110730A016A6001430A700201F12
:10027800E3282013831603178C183E2905308312B0
:100288008D0003132C0803178C003F3083168C0550
:1002980003108B1B031455308B130C158D00AA30DB
:1002A8008D008C140C11031CE3288B17E3286E2196
:1002B8000A128A1183210A128A118D210A128A11BF
:1002C800B3210A128A11C0210A128A11C7210A12FF
:1002D8008A11CB29850183168501031788018901B5
:1002E8000313811383128601013083168600FF30C1
:1002F800950083128701D0308316870008008B177A
:100308000B178B120B128B110B118B100B10011783
:1003180008000530811201168111011181100114A4
:1003280083128100901210129011101590108316EC
:100338000C148312B13010148F00DF308E00831636
:100348008C14831201301213921212129211121588
:100358009214121491006E308316920008008030B7
:1003680083129F0083169F009F121F1283121F1172
:100378009F111F129F12080083160C110D10831273
:1003880097019D0108000317870188010800713053
:10039800831603138F000800F4008400001074080B
:1003A800840080147408023E8400800A7408023EA7
:1003B800840000080A3A031D08007408023E8400FD
:1003C80080017408053E840080080319F829740820
:1003D800053E840080037408053E84008008031DE0
:1003E800F8297408840000127408073E8400800805
:1003F80003190B2A7408073E840080037408073E1B
:1004080084008008031D0B2A7408840000177408F0
:10041800083E8400800803191E2A7408083E8400D8
:1004280080037408083E84008008031D1E2A74088F
:10043800840080137408063E840080080319312A5A
:100448007408063E840080037408063E8400800811
:10045800031D312A7408840080127408043E840045
:10046800800A7408043E840000080A3A031D080044
:100478007408043E84008001740884008015080014
:10048800B5000A30F4003508013E840000088322D4
:100498000A128A11F8003508053E840078088000A1
:1004A800F630F4003508053E8400000875220A126B
:1004B8008A11F8003508013E840000087807F90021
:1004C8003508043E8400790880003508053E84001C
:1004D8008008031D08003508053E8400143080009C
:1004E8000800F600F50174087618F5070310F40DF6
:1004F8000310F60CF608031D772A75080800F500A6
:10050800F701740803199C2AF601F60AF41B8F2ACE
:100518000310F40D892A0310F70D74087502031CE3
:10052800992A7408F50277140310F40CF60B8F2A35
:1005380077080800F60084000019AF2A76088400BE
:1005480000157608093E8400070880007608093EF1
:100558008400D03080050708F500D030F50576080E
:10056800093E840075080002F400F408031DD12A2E
:1005780076080A3E8400800A76080A3E840000084D
:100588001E3A031D080076080A3E8400800176089A
:10059800093E8400750880000800F401760884008C
:1005A8000011080020308313840035300A128A11A4
:1005B800E12283010A128A11BD2864008001840A9D
:0A05C8000406031900340406E22AB9
:04400E0004EBFFFFC1
:00000001FF
